{
  "_format": "hh-sol-artifact-1",
  "contractName": "Raffle",
  "sourceName": "contracts/Raffle.sol",
  "abi": [
    {
      "inputs": [
        {
          "internalType": "address",
          "name": "vrfCoordinatorV2",
          "type": "address"
        },
        {
          "internalType": "uint64",
          "name": "subscriptionId",
          "type": "uint64"
        },
        {
          "internalType": "bytes32",
          "name": "gasLane",
          "type": "bytes32"
        },
        {
          "internalType": "uint256",
          "name": "interval",
          "type": "uint256"
        },
        {
          "internalType": "uint256",
          "name": "maniaInterval",
          "type": "uint256"
        },
        {
          "internalType": "uint32",
          "name": "callbackGasLimit",
          "type": "uint32"
        }
      ],
      "stateMutability": "nonpayable",
      "type": "constructor"
    },
    {
      "inputs": [
        {
          "internalType": "address",
          "name": "have",
          "type": "address"
        },
        {
          "internalType": "address",
          "name": "want",
          "type": "address"
        }
      ],
      "name": "OnlyCoordinatorCanFulfill",
      "type": "error"
    },
    {
      "inputs": [],
      "name": "Raffle__TransferFailed",
      "type": "error"
    },
    {
      "inputs": [],
      "name": "Raffle__UpkeepNotNeeded",
      "type": "error"
    },
    {
      "inputs": [],
      "name": "Raffle__WrongAmount",
      "type": "error"
    },
    {
      "anonymous": false,
      "inputs": [
        {
          "indexed": false,
          "internalType": "uint256",
          "name": "rafflePerforming",
          "type": "uint256"
        }
      ],
      "name": "RaffleCalculating",
      "type": "event"
    },
    {
      "anonymous": false,
      "inputs": [
        {
          "indexed": true,
          "internalType": "address",
          "name": "player",
          "type": "address"
        },
        {
          "indexed": false,
          "internalType": "uint256",
          "name": "raffleEntered",
          "type": "uint256"
        }
      ],
      "name": "RaffleEnter",
      "type": "event"
    },
    {
      "anonymous": false,
      "inputs": [
        {
          "indexed": false,
          "internalType": "enum Raffle.RaffleState",
          "name": "state",
          "type": "uint8"
        }
      ],
      "name": "RaffleManiaCalculating",
      "type": "event"
    },
    {
      "anonymous": false,
      "inputs": [
        {
          "indexed": true,
          "internalType": "address",
          "name": "player",
          "type": "address"
        },
        {
          "indexed": false,
          "internalType": "uint256",
          "name": "amount",
          "type": "uint256"
        }
      ],
      "name": "RaffleManiaWon",
      "type": "event"
    },
    {
      "anonymous": false,
      "inputs": [
        {
          "indexed": true,
          "internalType": "address",
          "name": "player",
          "type": "address"
        },
        {
          "indexed": false,
          "internalType": "uint256",
          "name": "raffleWon",
          "type": "uint256"
        }
      ],
      "name": "RaffleWon",
      "type": "event"
    },
    {
      "inputs": [],
      "name": "EnterRaffle",
      "outputs": [],
      "stateMutability": "payable",
      "type": "function"
    },
    {
      "inputs": [
        {
          "internalType": "bytes",
          "name": "",
          "type": "bytes"
        }
      ],
      "name": "checkUpkeep",
      "outputs": [
        {
          "internalType": "bool",
          "name": "upkeepNeeded",
          "type": "bool"
        },
        {
          "internalType": "bytes",
          "name": "",
          "type": "bytes"
        }
      ],
      "stateMutability": "view",
      "type": "function"
    },
    {
      "inputs": [
        {
          "internalType": "uint256",
          "name": "index",
          "type": "uint256"
        }
      ],
      "name": "getRaffle",
      "outputs": [
        {
          "components": [
            {
              "internalType": "uint256",
              "name": "entranceFee",
              "type": "uint256"
            },
            {
              "internalType": "uint256",
              "name": "lastTimeStamp",
              "type": "uint256"
            },
            {
              "internalType": "address",
              "name": "recentWinner",
              "type": "address"
            },
            {
              "internalType": "address payable[]",
              "name": "players",
              "type": "address[]"
            },
            {
              "internalType": "enum Raffle.RaffleState",
              "name": "raffleState",
              "type": "uint8"
            },
            {
              "internalType": "uint256",
              "name": "balance",
              "type": "uint256"
            },
            {
              "internalType": "bytes32",
              "name": "name",
              "type": "bytes32"
            }
          ],
          "internalType": "struct Raffle.raffle",
          "name": "",
          "type": "tuple"
        }
      ],
      "stateMutability": "view",
      "type": "function"
    },
    {
      "inputs": [],
      "name": "getRaffleManiaCount",
      "outputs": [
        {
          "internalType": "uint256",
          "name": "length",
          "type": "uint256"
        }
      ],
      "stateMutability": "view",
      "type": "function"
    },
    {
      "inputs": [],
      "name": "getallRaffles",
      "outputs": [
        {
          "components": [
            {
              "internalType": "uint256",
              "name": "entranceFee",
              "type": "uint256"
            },
            {
              "internalType": "uint256",
              "name": "lastTimeStamp",
              "type": "uint256"
            },
            {
              "internalType": "address",
              "name": "recentWinner",
              "type": "address"
            },
            {
              "internalType": "address payable[]",
              "name": "players",
              "type": "address[]"
            },
            {
              "internalType": "enum Raffle.RaffleState",
              "name": "raffleState",
              "type": "uint8"
            },
            {
              "internalType": "uint256",
              "name": "balance",
              "type": "uint256"
            },
            {
              "internalType": "bytes32",
              "name": "name",
              "type": "bytes32"
            }
          ],
          "internalType": "struct Raffle.raffle[]",
          "name": "",
          "type": "tuple[]"
        }
      ],
      "stateMutability": "view",
      "type": "function"
    },
    {
      "inputs": [
        {
          "internalType": "bytes",
          "name": "",
          "type": "bytes"
        }
      ],
      "name": "performUpkeep",
      "outputs": [],
      "stateMutability": "nonpayable",
      "type": "function"
    },
    {
      "inputs": [],
      "name": "raffleManiaToPerform",
      "outputs": [
        {
          "internalType": "bool",
          "name": "",
          "type": "bool"
        }
      ],
      "stateMutability": "view",
      "type": "function"
    },
    {
      "inputs": [
        {
          "internalType": "uint256",
          "name": "requestId",
          "type": "uint256"
        },
        {
          "internalType": "uint256[]",
          "name": "randomWords",
          "type": "uint256[]"
        }
      ],
      "name": "rawFulfillRandomWords",
      "outputs": [],
      "stateMutability": "nonpayable",
      "type": "function"
    },
    {
      "inputs": [],
      "name": "s_raffleMania",
      "outputs": [
        {
          "internalType": "uint256",
          "name": "lastTimeStamp",
          "type": "uint256"
        },
        {
          "internalType": "address",
          "name": "recentWinner",
          "type": "address"
        },
        {
          "internalType": "enum Raffle.RaffleState",
          "name": "raffleState",
          "type": "uint8"
        },
        {
          "internalType": "uint256",
          "name": "balance",
          "type": "uint256"
        }
      ],
      "stateMutability": "view",
      "type": "function"
    },
    {
      "inputs": [
        {
          "internalType": "uint256",
          "name": "",
          "type": "uint256"
        }
      ],
      "name": "s_raffles",
      "outputs": [
        {
          "internalType": "uint256",
          "name": "entranceFee",
          "type": "uint256"
        },
        {
          "internalType": "uint256",
          "name": "lastTimeStamp",
          "type": "uint256"
        },
        {
          "internalType": "address",
          "name": "recentWinner",
          "type": "address"
        },
        {
          "internalType": "enum Raffle.RaffleState",
          "name": "raffleState",
          "type": "uint8"
        },
        {
          "internalType": "uint256",
          "name": "balance",
          "type": "uint256"
        },
        {
          "internalType": "bytes32",
          "name": "name",
          "type": "bytes32"
        }
      ],
      "stateMutability": "view",
      "type": "function"
    }
  ],
  "bytecode": "0x6101606040523480156200001257600080fd5b50604051620022e0380380620022e08339810160408190526200003591620005cd565b606086811b6001600160601b031916608081905260a05260e085815261012085905260c087811b6001600160c01b031916905282811b6001600160e01b03191661010052610140849052604080519182018152662386f26fc10000825260006020830181905290820181905291810182604051908082528060200260200182016040528015620000cf578160200160208202803683370190505b508152602001600081526000602080830182905263283632b160e11b6040938401528454600180820187559583529181902084516007909302019182558381015194820194909455908201516002820180546001600160a01b0319166001600160a01b0390921691909117905560608201518051929391926200015992600385019201906200054c565b50608082015160048201805460ff1916600183818111156200018b57634e487b7160e01b600052602160045260246000fd5b021790555060a082810151600583015560c0928301516006909201919091556040805160e0810182526703782dace9d9000081526000602080830182815283850183815285518481528084019096526060850195865260808501849052958401839052958301829052815460018101835591805282516000805160206200226083398151915260079093029283019081559551600080516020620022c0833981519152830155935160008051602062002280833981519152820180546001600160a01b0319166001600160a01b03909216919091179055915180519194936200028993600080516020620022a083398151915201929101906200054c565b50608082015160048201805460ff191660018381811115620002bb57634e487b7160e01b600052602160045260246000fd5b021790555060a082810151600583015560c0928301516006909201919091556040805160e0810182526706f05b59d3b2000081526000602080830182815283850183815285518481528084019096526060850195865260808501849052958401839052958301829052815460018101835591805282516000805160206200226083398151915260079093029283019081559551600080516020620022c0833981519152830155935160008051602062002280833981519152820180546001600160a01b0319166001600160a01b0390921691909117905591518051919493620003b993600080516020620022a083398151915201929101906200054c565b50608082015160048201805460ff191660018381811115620003eb57634e487b7160e01b600052602160045260246000fd5b021790555060a082810151600583015560c0928301516006909201919091556040805160e081018252670de0b6b3a764000081526000602080830182815283850183815285518481528084019096526060850195865260808501849052958401839052642232b3b2b760d91b96840196909652815460018101835591805282516000805160206200226083398151915260079093029283019081559551600080516020620022c0833981519152830155935160008051602062002280833981519152820180546001600160a01b0319166001600160a01b0390921691909117905591518051919493620004f393600080516020620022a083398151915201929101906200054c565b50608082015160048201805460ff1916600183818111156200052557634e487b7160e01b600052602160045260246000fd5b021790555060a0820151816005015560c08201518160060155505050505050505062000658565b828054828255906000526020600020908101928215620005a4579160200282015b82811115620005a457825182546001600160a01b0319166001600160a01b039091161782556020909201916001909101906200056d565b50620005b2929150620005b6565b5090565b5b80821115620005b25760008155600101620005b7565b60008060008060008060c08789031215620005e6578182fd5b86516001600160a01b0381168114620005fd578283fd5b60208801519096506001600160401b03811681146200061a578283fd5b8095505060408701519350606087015192506080870151915060a087015163ffffffff811681146200064a578182fd5b809150509295509295509295565b60805160601c60a05160601c60c05160c01c60e0516101005160e01c6101205161014051611b8c620006d460003960008181610ad60152610e210152600081816109010152610d3301526000610bfd01526000610b9b01526000610bca01526000610c2f01526000818161022a015261026c0152611b8c6000f3fe6080604052600436106100915760003560e01c8063aa2b3b5411610059578063aa2b3b5414610139578063c51b869214610178578063e4dafec9146101aa578063fa3ff562146101d7578063fabc55e3146101f557600080fd5b80631fe543e31461009657806320fbb085146100b857806325d2528e146100e35780634585e33b146100eb5780636e04ff0d1461010b575b600080fd5b3480156100a257600080fd5b506100b66100b1366004611757565b61021f565b005b3480156100c457600080fd5b506100cd6102ab565b6040516100da91906118d2565b60405180910390f35b6100b66103ee565b3480156100f757600080fd5b506100b661010636600461162d565b610854565b34801561011757600080fd5b5061012b61012636600461169a565b610cc1565b6040516100da929190611933565b34801561014557600080fd5b5060025460035460055460065461016893926001600160a01b03169160ff169084565b6040516100da94939291906119be565b34801561018457600080fd5b50610198610193366004611727565b610ebd565b6040516100da969594939291906119f0565b3480156101b657600080fd5b506101ca6101c5366004611727565b610f13565b6040516100da91906119a4565b3480156101e357600080fd5b506004546040519081526020016100da565b34801561020157600080fd5b5060075461020f9060ff1681565b60405190151581526020016100da565b336001600160a01b037f0000000000000000000000000000000000000000000000000000000000000000161461029d5760405163073e64fd60e21b81523360048201526001600160a01b037f000000000000000000000000000000000000000000000000000000000000000016602482015260440160405180910390fd5b6102a78282611072565b5050565b60606000805480602002602001604051908101604052809291908181526020016000905b828210156103e55760008481526020908190206040805160e081018252600786029092018054835260018101548385015260028101546001600160a01b0316838301526003810180548351818702810187019094528084529394919360608601939283018282801561036a57602002820191906000526020600020905b81546001600160a01b0316815260019091019060200180831161034c575b5050509183525050600482015460209091019060ff16600181111561039f57634e487b7160e01b600052602160045260246000fd5b60018111156103be57634e487b7160e01b600052602160045260246000fd5b815260200160058201548152602001600682015481525050815260200190600101906102cf565b50505050905090565b60008060008154811061041157634e487b7160e01b600052603260045260246000fd5b906000526020600020906007020160000154341415905060008060018154811061044b57634e487b7160e01b600052603260045260246000fd5b906000526020600020906007020160000154341415905060008060028154811061048557634e487b7160e01b600052603260045260246000fd5b90600052602060002090600702016000015434141590506000806003815481106104bf57634e487b7160e01b600052603260045260246000fd5b6000918252602082206007909102015434141591508480156104de5750835b80156104e75750825b80156104f05750815b905080156105115760405163e25c59ad60e01b815260040160405180910390fd5b60008054905b8181101561084b57346000828154811061054157634e487b7160e01b600052603260045260246000fd5b906000526020600020906007020160000154141561083957600080828154811061057b57634e487b7160e01b600052603260045260246000fd5b600091825260209091206004600790920201015460ff1660018111156105b157634e487b7160e01b600052602160045260246000fd5b141561083957600081815481106105d857634e487b7160e01b600052603260045260246000fd5b600091825260209091206003600790920201015461062857426000828154811061061257634e487b7160e01b600052603260045260246000fd5b9060005260206000209060070201600101819055505b6000818154811061064957634e487b7160e01b600052603260045260246000fd5b60009182526020808320600360079093020191909101805460018101825590835291200180546001600160a01b03191633179055610688606434611a77565b61069390605f611a8b565b600082815481106106b457634e487b7160e01b600052603260045260246000fd5b906000526020600020906007020160050160008282546106d49190611a5f565b909155505060405181815233907fed20d2ab01271e5ab09835d58aec6ad1931db157b05b700c95c1e625b81c86009060200160405180910390a2600160055460ff16600181111561073557634e487b7160e01b600052602160045260246000fd5b14156107bd57600033610749606434611a77565b610754906003611a8b565b604051600081818185875af1925050503d8060008114610790576040519150601f19603f3d011682016040523d82523d6000602084013e610795565b606091505b50509050806107b75760405163a1d04b3960e01b815260040160405180910390fd5b50610839565b6004546107c957426002555b6107d4606434611a77565b6107df906003611a8b565b600680546000906107f1908490611a5f565b9091555050600480546001810182556000919091527f8a35acfbc15ff81a39ae7d344fd709f28e8600b4aa8c65c6b64bfe7fe36bd19b0180546001600160a01b031916331790555b8061084381611ac1565b915050610517565b50505050505050565b600061086e60405180602001604052806000815250610cc1565b5090508061088f57604051638e4bc81760e01b815260040160405180910390fd5b60008054908080805b84811015610aa657600080600083815481106108c457634e487b7160e01b600052603260045260246000fd5b600091825260209091206004600790920201015460ff1660018111156108fa57634e487b7160e01b600052602160045260246000fd5b14905060007f00000000000000000000000000000000000000000000000000000000000000006000848154811061094157634e487b7160e01b600052603260045260246000fd5b9060005260206000209060070201600101544261095e9190611aaa565b1190506000806000858154811061098557634e487b7160e01b600052603260045260246000fd5b9060005260206000209060070201600301805490501190508180156109a75750825b80156109b05750805b95508515610a7957866109c281611adc565b60008681526001602081905260408220805460ff1916821790558154929a5092509086908110610a0257634e487b7160e01b600052603260045260246000fd5b60009182526020909120600460079092020101805460ff191660018381811115610a3c57634e487b7160e01b600052602160045260246000fd5b02179055506040518481527fbed81a4e72234442fdfef5c7850ff88ed876cb1fb3faeff50782823021fb80179060200160405180910390a1610a90565b6000848152600160205260409020805460ff191690555b5050508080610a9e90611ac1565b915050610898565b5060008060055460ff166001811115610acf57634e487b7160e01b600052602160045260246000fd5b14905060007f000000000000000000000000000000000000000000000000000000000000000060026000015442610b069190611aaa565b600454911091501515818015610b195750825b8015610b225750805b93508315610b8c576007805460ff1916600117905585610b4181611adc565b6005805460ff191660019081179091556040519198507f6133b6abe1ffc2b12863499333212ea2690168e398a52afa14f0135767d7c5469250610b8391611990565b60405180910390a15b6040516305d3b1d360e41b81527f0000000000000000000000000000000000000000000000000000000000000000600482015267ffffffffffffffff7f00000000000000000000000000000000000000000000000000000000000000001660248201526003604482015263ffffffff7f000000000000000000000000000000000000000000000000000000000000000081166064830152871660848201526000907f00000000000000000000000000000000000000000000000000000000000000006001600160a01b031690635d3b1d309060a401602060405180830381600087803b158015610c7b57600080fd5b505af1158015610c8f573d6000803e3d6000fd5b505050506040513d601f19601f82011682018060405250810190610cb3919061173f565b505050505050505050505050565b60008054606090825b81811015610e995760008060008381548110610cf657634e487b7160e01b600052603260045260246000fd5b600091825260209091206004600790920201015460ff166001811115610d2c57634e487b7160e01b600052602160045260246000fd5b14905060007f000000000000000000000000000000000000000000000000000000000000000060008481548110610d7357634e487b7160e01b600052603260045260246000fd5b90600052602060002090600702016001015442610d909190611aaa565b11905060008060008581548110610db757634e487b7160e01b600052603260045260246000fd5b906000526020600020906007020160030180549050119050818015610dd95750825b8015610de25750805b96508615610df257505050610e99565b60008060055460ff166001811115610e1a57634e487b7160e01b600052602160045260246000fd5b14905060007f000000000000000000000000000000000000000000000000000000000000000060026000015442610e519190611aaa565b600454911091501515818015610e645750825b8015610e6d5750805b99508915610e8057505050505050610e99565b5050505050508080610e9190611ac1565b915050610cca565b505060408051808201909152600381526203078360ec1b6020820152919391925050565b60008181548110610ecd57600080fd5b600091825260209091206007909102018054600182015460028301546004840154600585015460069095015493955091936001600160a01b039091169260ff9092169186565b6040805160e0810182526000808252602082018190529181018290526060808201526080810182905260a0810182905260c081019190915260008281548110610f6c57634e487b7160e01b600052603260045260246000fd5b60009182526020918290206040805160e08101825260079093029091018054835260018101548385015260028101546001600160a01b0316838301526003810180548351818702810187019094528084529394919360608601939283018282801561100057602002820191906000526020600020905b81546001600160a01b03168152600190910190602001808311610fe2575b5050509183525050600482015460209091019060ff16600181111561103557634e487b7160e01b600052602160045260246000fd5b600181111561105457634e487b7160e01b600052602160045260246000fd5b81526005820154602082015260069091015460409091015292915050565b60008054825190919061108790600190611aaa565b905060005b8281101561141b5760008181526001602081905260409091205460ff16151514156114095760008082815481106110d357634e487b7160e01b600052603260045260246000fd5b90600052602060002090600702016003018054905085848151811061110857634e487b7160e01b600052603260045260246000fd5b602002602001015161111a9190611b00565b9050600080838154811061113e57634e487b7160e01b600052603260045260246000fd5b9060005260206000209060070201600301828154811061116e57634e487b7160e01b600052603260045260246000fd5b600091825260208220015481546001600160a01b039091169250829190859081106111a957634e487b7160e01b600052603260045260246000fd5b906000526020600020906007020160020160006101000a8154816001600160a01b0302191690836001600160a01b03160217905550600080848154811061120057634e487b7160e01b600052603260045260246000fd5b60009182526020909120600460079092020101805460ff19166001838181111561123a57634e487b7160e01b600052602160045260246000fd5b02179055506040805160008082526020820190925290506000848154811061127257634e487b7160e01b600052603260045260246000fd5b906000526020600020906007020160030190805190602001906112969291906115b3565b5060008084815481106112b957634e487b7160e01b600052603260045260246000fd5b600091825260208083206001600790930201820193909355858252909152604090819020805460ff19169055516001600160a01b038216907fc5fb08f9009bdc061ab92195515f3d81285332adaf7391b324e7527dc16b02a1906113209086815260200190565b60405180910390a26000816001600160a01b03166000858154811061135557634e487b7160e01b600052603260045260246000fd5b90600052602060002090600702016005015460405160006040518083038185875af1925050503d80600081146113a7576040519150601f19603f3d011682016040523d82523d6000602084013e6113ac565b606091505b50509050806113ce5760405163a1d04b3960e01b815260040160405180910390fd5b60008085815481106113f057634e487b7160e01b600052603260045260246000fd5b9060005260206000209060070201600501819055505050505b8061141381611ac1565b91505061108c565b5060075460ff16156115ad5760045483516000919085908490811061145057634e487b7160e01b600052603260045260246000fd5b60200260200101516114629190611b00565b9050600060028001828154811061148957634e487b7160e01b600052603260045260246000fd5b600091825260208083209190910154600380546001600160a01b0319166001600160a01b0390921691821790556005805460ff19169055604080519384529183019182905291519192506114e091600491906115b3565b5060006002556007805460ff191690556006546040519081526001600160a01b038216907f8e80626faf2fd5e0026efbe40b26fe3ef347bda040b59515a7ecdc464ec9b2b69060200160405180910390a26006546040516000916001600160a01b038416918381818185875af1925050503d806000811461157d576040519150601f19603f3d011682016040523d82523d6000602084013e611582565b606091505b50509050806115a45760405163a1d04b3960e01b815260040160405180910390fd5b50506000600655505b50505050565b828054828255906000526020600020908101928215611608579160200282015b8281111561160857825182546001600160a01b0319166001600160a01b039091161782556020909201916001909101906115d3565b50611614929150611618565b5090565b5b808211156116145760008155600101611619565b6000806020838503121561163f578182fd5b823567ffffffffffffffff80821115611656578384fd5b818501915085601f830112611669578384fd5b813581811115611677578485fd5b866020828501011115611688578485fd5b60209290920196919550909350505050565b600060208083850312156116ac578182fd5b823567ffffffffffffffff808211156116c3578384fd5b818501915085601f8301126116d6578384fd5b8135818111156116e8576116e8611b40565b6116fa601f8201601f19168501611a2e565b9150808252868482850101111561170f578485fd5b80848401858401378101909201929092529392505050565b600060208284031215611738578081fd5b5035919050565b600060208284031215611750578081fd5b5051919050565b60008060408385031215611769578182fd5b8235915060208084013567ffffffffffffffff80821115611788578384fd5b818601915086601f83011261179b578384fd5b8135818111156117ad576117ad611b40565b8060051b91506117be848301611a2e565b8181528481019084860184860187018b10156117d8578788fd5b8795505b838610156117fa5780358352600195909501949186019186016117dc565b508096505050505050509250929050565b6002811061182957634e487b7160e01b600052602160045260246000fd5b9052565b600060e083018251845260208084015181860152604084015160018060a01b0380821660408801526060860151915060e060608801528382518086526101008901915084840195508693505b8084101561189b57855183168252948401946001939093019290840190611879565b50608087015194506118b0608089018661180b565b60a087015160a089015260c087015160c0890152809550505050505092915050565b6000602080830181845280855180835260408601915060408160051b8701019250838701855b8281101561192657603f1988860301845261191485835161182d565b945092850192908501906001016118f8565b5092979650505050505050565b8215158152600060206040818401528351806040850152825b818110156119685785810183015185820160600152820161194c565b818111156119795783606083870101525b50601f01601f191692909201606001949350505050565b6020810161199e828461180b565b92915050565b6020815260006119b7602083018461182d565b9392505050565b8481526001600160a01b0384166020820152608081016119e1604083018561180b565b82606083015295945050505050565b868152602081018690526001600160a01b038516604082015260c08101611a1a606083018661180b565b608082019390935260a00152949350505050565b604051601f8201601f1916810167ffffffffffffffff81118282101715611a5757611a57611b40565b604052919050565b60008219821115611a7257611a72611b14565b500190565b600082611a8657611a86611b2a565b500490565b6000816000190483118215151615611aa557611aa5611b14565b500290565b600082821015611abc57611abc611b14565b500390565b6000600019821415611ad557611ad5611b14565b5060010190565b600063ffffffff80831681811415611af657611af6611b14565b6001019392505050565b600082611b0f57611b0f611b2a565b500690565b634e487b7160e01b600052601160045260246000fd5b634e487b7160e01b600052601260045260246000fd5b634e487b7160e01b600052604160045260246000fdfea26469706673582212202b4275d660b4ace17773c04ffc832e0b921b1b712dd505e6c4b8ca42d8d1b95264736f6c63430008040033290decd9548b62a8d60345a988386fc84ba6bc95484008f6362f93160ef3e563290decd9548b62a8d60345a988386fc84ba6bc95484008f6362f93160ef3e565290decd9548b62a8d60345a988386fc84ba6bc95484008f6362f93160ef3e566290decd9548b62a8d60345a988386fc84ba6bc95484008f6362f93160ef3e564",
  "linkReferences": {},
  "deployedLinkReferences": {}
}