{
  "_format": "hh-sol-artifact-1",
  "contractName": "Raffle",
  "sourceName": "contracts/Raffle.sol",
  "abi": [
    {
      "inputs": [
        {
          "internalType": "address",
          "name": "vrfCoordinatorV2",
          "type": "address"
        },
        {
          "internalType": "uint64",
          "name": "subscriptionId",
          "type": "uint64"
        },
        {
          "internalType": "bytes32",
          "name": "gasLane",
          "type": "bytes32"
        },
        {
          "internalType": "uint256",
          "name": "interval",
          "type": "uint256"
        },
        {
          "internalType": "uint32",
          "name": "callbackGasLimit",
          "type": "uint32"
        }
      ],
      "stateMutability": "nonpayable",
      "type": "constructor"
    },
    {
      "inputs": [
        {
          "internalType": "address",
          "name": "have",
          "type": "address"
        },
        {
          "internalType": "address",
          "name": "want",
          "type": "address"
        }
      ],
      "name": "OnlyCoordinatorCanFulfill",
      "type": "error"
    },
    {
      "inputs": [],
      "name": "Raffle__TransferFailed",
      "type": "error"
    },
    {
      "inputs": [],
      "name": "Raffle__UpkeepNotNeeded",
      "type": "error"
    },
    {
      "inputs": [],
      "name": "Raffle__WrongAmount",
      "type": "error"
    },
    {
      "anonymous": false,
      "inputs": [
        {
          "indexed": false,
          "internalType": "uint256",
          "name": "rafflePerforming",
          "type": "uint256"
        }
      ],
      "name": "RaffleCalculating",
      "type": "event"
    },
    {
      "anonymous": false,
      "inputs": [
        {
          "indexed": true,
          "internalType": "address",
          "name": "player",
          "type": "address"
        },
        {
          "indexed": false,
          "internalType": "uint256",
          "name": "raffleEntered",
          "type": "uint256"
        }
      ],
      "name": "RaffleEnter",
      "type": "event"
    },
    {
      "anonymous": false,
      "inputs": [
        {
          "indexed": true,
          "internalType": "address",
          "name": "player",
          "type": "address"
        },
        {
          "indexed": false,
          "internalType": "uint256",
          "name": "raffleWon",
          "type": "uint256"
        }
      ],
      "name": "RaffleWon",
      "type": "event"
    },
    {
      "inputs": [],
      "name": "EnterRaffle",
      "outputs": [],
      "stateMutability": "payable",
      "type": "function"
    },
    {
      "inputs": [
        {
          "internalType": "bytes",
          "name": "",
          "type": "bytes"
        }
      ],
      "name": "checkUpkeep",
      "outputs": [
        {
          "internalType": "bool",
          "name": "upkeepNeeded",
          "type": "bool"
        },
        {
          "internalType": "bytes",
          "name": "",
          "type": "bytes"
        }
      ],
      "stateMutability": "view",
      "type": "function"
    },
    {
      "inputs": [
        {
          "internalType": "uint256",
          "name": "index",
          "type": "uint256"
        }
      ],
      "name": "getRaffle",
      "outputs": [
        {
          "components": [
            {
              "internalType": "uint256",
              "name": "entranceFee",
              "type": "uint256"
            },
            {
              "internalType": "uint256",
              "name": "lastTimeStamp",
              "type": "uint256"
            },
            {
              "internalType": "address",
              "name": "recentWinner",
              "type": "address"
            },
            {
              "internalType": "address payable[]",
              "name": "players",
              "type": "address[]"
            },
            {
              "internalType": "enum Raffle.RaffleState",
              "name": "raffleState",
              "type": "uint8"
            },
            {
              "internalType": "uint256",
              "name": "balance",
              "type": "uint256"
            },
            {
              "internalType": "bytes32",
              "name": "name",
              "type": "bytes32"
            }
          ],
          "internalType": "struct Raffle.raffle",
          "name": "",
          "type": "tuple"
        }
      ],
      "stateMutability": "view",
      "type": "function"
    },
    {
      "inputs": [],
      "name": "getallRaffles",
      "outputs": [
        {
          "components": [
            {
              "internalType": "uint256",
              "name": "entranceFee",
              "type": "uint256"
            },
            {
              "internalType": "uint256",
              "name": "lastTimeStamp",
              "type": "uint256"
            },
            {
              "internalType": "address",
              "name": "recentWinner",
              "type": "address"
            },
            {
              "internalType": "address payable[]",
              "name": "players",
              "type": "address[]"
            },
            {
              "internalType": "enum Raffle.RaffleState",
              "name": "raffleState",
              "type": "uint8"
            },
            {
              "internalType": "uint256",
              "name": "balance",
              "type": "uint256"
            },
            {
              "internalType": "bytes32",
              "name": "name",
              "type": "bytes32"
            }
          ],
          "internalType": "struct Raffle.raffle[]",
          "name": "",
          "type": "tuple[]"
        }
      ],
      "stateMutability": "view",
      "type": "function"
    },
    {
      "inputs": [
        {
          "internalType": "bytes",
          "name": "",
          "type": "bytes"
        }
      ],
      "name": "performUpkeep",
      "outputs": [],
      "stateMutability": "nonpayable",
      "type": "function"
    },
    {
      "inputs": [
        {
          "internalType": "uint256",
          "name": "requestId",
          "type": "uint256"
        },
        {
          "internalType": "uint256[]",
          "name": "randomWords",
          "type": "uint256[]"
        }
      ],
      "name": "rawFulfillRandomWords",
      "outputs": [],
      "stateMutability": "nonpayable",
      "type": "function"
    },
    {
      "inputs": [
        {
          "internalType": "uint256",
          "name": "",
          "type": "uint256"
        }
      ],
      "name": "s_raffles",
      "outputs": [
        {
          "internalType": "uint256",
          "name": "entranceFee",
          "type": "uint256"
        },
        {
          "internalType": "uint256",
          "name": "lastTimeStamp",
          "type": "uint256"
        },
        {
          "internalType": "address",
          "name": "recentWinner",
          "type": "address"
        },
        {
          "internalType": "enum Raffle.RaffleState",
          "name": "raffleState",
          "type": "uint8"
        },
        {
          "internalType": "uint256",
          "name": "balance",
          "type": "uint256"
        },
        {
          "internalType": "bytes32",
          "name": "name",
          "type": "bytes32"
        }
      ],
      "stateMutability": "view",
      "type": "function"
    }
  ],
  "bytecode": "0x6101406040523480156200001257600080fd5b5060405162001d4b38038062001d4b8339810160408190526200003591620005c6565b606085811b6001600160601b031916608081905260a05260e084815261012084905260c086811b6001600160c01b031916905282811b6001600160e01b03191661010052604080519182018152662386f26fc10000825260006020830181905290820181905291810182604051908082528060200260200182016040528015620000c9578160200160208202803683370190505b508152602001600081526000602080830182905263283632b160e11b6040938401528454600180820187559583529181902084516007909302019182558381015194820194909455908201516002820180546001600160a01b0319166001600160a01b03909216919091179055606082015180519293919262000153926003850192019062000545565b50608082015160048201805460ff1916600183818111156200018557634e487b7160e01b600052602160045260246000fd5b021790555060a082810151600583015560c0928301516006909201919091556040805160e0810182526703782dace9d90000815260006020808301828152838501838152855184815280840190965260608501958652608085018490529584018390529583018290528154600181018355918052825160008051602062001ccb8339815191526007909302928301908155955160008051602062001d2b833981519152830155935160008051602062001ceb833981519152820180546001600160a01b0319166001600160a01b0390921691909117905591518051919493620002839360008051602062001d0b833981519152019291019062000545565b50608082015160048201805460ff191660018381811115620002b557634e487b7160e01b600052602160045260246000fd5b021790555060a082810151600583015560c0928301516006909201919091556040805160e0810182526706f05b59d3b20000815260006020808301828152838501838152855184815280840190965260608501958652608085018490529584018390529583018290528154600181018355918052825160008051602062001ccb8339815191526007909302928301908155955160008051602062001d2b833981519152830155935160008051602062001ceb833981519152820180546001600160a01b0319166001600160a01b0390921691909117905591518051919493620003b39360008051602062001d0b833981519152019291019062000545565b50608082015160048201805460ff191660018381811115620003e557634e487b7160e01b600052602160045260246000fd5b021790555060a082810151600583015560c0928301516006909201919091556040805160e081018252670de0b6b3a764000081526000602080830182815283850183815285518481528084019096526060850195865260808501849052958401839052642232b3b2b760d91b968401969096528154600181018355918052825160008051602062001ccb8339815191526007909302928301908155955160008051602062001d2b833981519152830155935160008051602062001ceb833981519152820180546001600160a01b0319166001600160a01b0390921691909117905591518051919493620004ed9360008051602062001d0b833981519152019291019062000545565b50608082015160048201805460ff1916600183818111156200051f57634e487b7160e01b600052602160045260246000fd5b021790555060a0820151816005015560c082015181600601555050505050505062000649565b8280548282559060005260206000209081019282156200059d579160200282015b828111156200059d57825182546001600160a01b0319166001600160a01b0390911617825560209092019160019091019062000566565b50620005ab929150620005af565b5090565b5b80821115620005ab5760008155600101620005b0565b600080600080600060a08688031215620005de578081fd5b85516001600160a01b0381168114620005f5578182fd5b60208701519095506001600160401b038116811462000612578182fd5b809450506040860151925060608601519150608086015163ffffffff811681146200063b578182fd5b809150509295509295909350565b60805160601c60a05160601c60c05160c01c60e0516101005160e01c61012051611618620006b36000396000818161071b0152610a6401526000610932015260006108d0015260006108ff0152600061096401526000818161018201526101c401526116186000f3fe6080604052600436106100705760003560e01c80634585e33b1161004e5780634585e33b146100ca5780636e04ff0d146100ea578063c51b869214610118578063e4dafec91461014a57600080fd5b80631fe543e31461007557806320fbb0851461009757806325d2528e146100c2575b600080fd5b34801561008157600080fd5b50610095610090366004611266565b610177565b005b3480156100a357600080fd5b506100ac610203565b6040516100b991906113e1565b60405180910390f35b610095610346565b3480156100d657600080fd5b506100956100e536600461113c565b61066f565b3480156100f657600080fd5b5061010a6101053660046111a9565b6109f2565b6040516100b9929190611442565b34801561012457600080fd5b50610138610133366004611236565b610b5d565b6040516100b9969594939291906114b9565b34801561015657600080fd5b5061016a610165366004611236565b610bb3565b6040516100b9919061149f565b336001600160a01b037f000000000000000000000000000000000000000000000000000000000000000016146101f55760405163073e64fd60e21b81523360048201526001600160a01b037f000000000000000000000000000000000000000000000000000000000000000016602482015260440160405180910390fd5b6101ff8282610d12565b5050565b60606000805480602002602001604051908101604052809291908181526020016000905b8282101561033d5760008481526020908190206040805160e081018252600786029092018054835260018101548385015260028101546001600160a01b031683830152600381018054835181870281018701909452808452939491936060860193928301828280156102c257602002820191906000526020600020905b81546001600160a01b031681526001909101906020018083116102a4575b5050509183525050600482015460209091019060ff1660018111156102f757634e487b7160e01b600052602160045260246000fd5b600181111561031657634e487b7160e01b600052602160045260246000fd5b81526020016005820154815260200160068201548152505081526020019060010190610227565b50505050905090565b60008060008154811061036957634e487b7160e01b600052603260045260246000fd5b90600052602060002090600702016000015434141590506000806001815481106103a357634e487b7160e01b600052603260045260246000fd5b90600052602060002090600702016000015434141590506000806002815481106103dd57634e487b7160e01b600052603260045260246000fd5b906000526020600020906007020160000154341415905060008060038154811061041757634e487b7160e01b600052603260045260246000fd5b6000918252602082206007909102015434141591508480156104365750835b801561043f5750825b80156104485750815b905080156104695760405163e25c59ad60e01b815260040160405180910390fd5b60008054905b8181101561066657346000828154811061049957634e487b7160e01b600052603260045260246000fd5b90600052602060002090600702016000015414156106545760008082815481106104d357634e487b7160e01b600052603260045260246000fd5b600091825260209091206004600790920201015460ff16600181111561050957634e487b7160e01b600052602160045260246000fd5b1415610654576000818154811061053057634e487b7160e01b600052603260045260246000fd5b600091825260209091206003600790920201015461058057426000828154811061056a57634e487b7160e01b600052603260045260246000fd5b9060005260206000209060070201600101819055505b600081815481106105a157634e487b7160e01b600052603260045260246000fd5b6000918252602080832060036007909302019190910180546001810182559083529082200180546001600160a01b031916331790558054349190839081106105f957634e487b7160e01b600052603260045260246000fd5b906000526020600020906007020160050160008282546106199190611528565b909155505060405181815233907fed20d2ab01271e5ab09835d58aec6ad1931db157b05b700c95c1e625b81c86009060200160405180910390a25b8061065e81611557565b91505061046f565b50505050505050565b6000610689604051806020016040528060008152506109f2565b509050806106aa57604051638e4bc81760e01b815260040160405180910390fd5b600080549080805b838110156108c057600080600083815481106106de57634e487b7160e01b600052603260045260246000fd5b600091825260209091206004600790920201015460ff16600181111561071457634e487b7160e01b600052602160045260246000fd5b14905060007f00000000000000000000000000000000000000000000000000000000000000006000848154811061075b57634e487b7160e01b600052603260045260246000fd5b906000526020600020906007020160010154426107789190611540565b1190506000806000858154811061079f57634e487b7160e01b600052603260045260246000fd5b9060005260206000209060070201600301805490501190508180156107c15750825b80156107ca5750805b9450841561089357856107dc81611572565b60008681526001602081905260408220805460ff19168217905581549299509250908690811061081c57634e487b7160e01b600052603260045260246000fd5b60009182526020909120600460079092020101805460ff19166001838181111561085657634e487b7160e01b600052602160045260246000fd5b02179055506040518481527fbed81a4e72234442fdfef5c7850ff88ed876cb1fb3faeff50782823021fb80179060200160405180910390a16108aa565b6000848152600160205260409020805460ff191690555b50505080806108b890611557565b9150506106b2565b506040516305d3b1d360e41b81527f0000000000000000000000000000000000000000000000000000000000000000600482015267ffffffffffffffff7f00000000000000000000000000000000000000000000000000000000000000001660248201526003604482015263ffffffff7f000000000000000000000000000000000000000000000000000000000000000081166064830152831660848201526000907f00000000000000000000000000000000000000000000000000000000000000006001600160a01b031690635d3b1d309060a401602060405180830381600087803b1580156109b057600080fd5b505af11580156109c4573d6000803e3d6000fd5b505050506040513d601f19601f820116820180604052508101906109e8919061124e565b5050505050505050565b60008054606090825b81811015610b395760008060008381548110610a2757634e487b7160e01b600052603260045260246000fd5b600091825260209091206004600790920201015460ff166001811115610a5d57634e487b7160e01b600052602160045260246000fd5b14905060007f000000000000000000000000000000000000000000000000000000000000000060008481548110610aa457634e487b7160e01b600052603260045260246000fd5b90600052602060002090600702016001015442610ac19190611540565b11905060008060008581548110610ae857634e487b7160e01b600052603260045260246000fd5b906000526020600020906007020160030180549050119050818015610b0a5750825b8015610b135750805b96508615610b2357505050610b39565b5050508080610b3190611557565b9150506109fb565b505060408051808201909152600381526203078360ec1b6020820152919391925050565b60008181548110610b6d57600080fd5b600091825260209091206007909102018054600182015460028301546004840154600585015460069095015493955091936001600160a01b039091169260ff9092169186565b6040805160e0810182526000808252602082018190529181018290526060808201526080810182905260a0810182905260c081019190915260008281548110610c0c57634e487b7160e01b600052603260045260246000fd5b60009182526020918290206040805160e08101825260079093029091018054835260018101548385015260028101546001600160a01b03168383015260038101805483518187028101870190945280845293949193606086019392830182828015610ca057602002820191906000526020600020905b81546001600160a01b03168152600190910190602001808311610c82575b5050509183525050600482015460209091019060ff166001811115610cd557634e487b7160e01b600052602160045260246000fd5b6001811115610cf457634e487b7160e01b600052602160045260246000fd5b81526005820154602082015260069091015460409091015292915050565b600080548251909190610d2790600190611540565b905060005b828110156110bb5760008181526001602081905260409091205460ff16151514156110a9576000808281548110610d7357634e487b7160e01b600052603260045260246000fd5b906000526020600020906007020160030180549050858481518110610da857634e487b7160e01b600052603260045260246000fd5b6020026020010151610dba9190611596565b90506000808381548110610dde57634e487b7160e01b600052603260045260246000fd5b90600052602060002090600702016003018281548110610e0e57634e487b7160e01b600052603260045260246000fd5b600091825260208220015481546001600160a01b03909116925082919085908110610e4957634e487b7160e01b600052603260045260246000fd5b906000526020600020906007020160020160006101000a8154816001600160a01b0302191690836001600160a01b031602179055506000808481548110610ea057634e487b7160e01b600052603260045260246000fd5b60009182526020909120600460079092020101805460ff191660018381811115610eda57634e487b7160e01b600052602160045260246000fd5b021790555060408051600080825260208201909252905060008481548110610f1257634e487b7160e01b600052603260045260246000fd5b90600052602060002090600702016003019080519060200190610f369291906110c2565b504260008481548110610f5957634e487b7160e01b600052603260045260246000fd5b600091825260208083206001600790930201820193909355858252909152604090819020805460ff19169055516001600160a01b038216907fc5fb08f9009bdc061ab92195515f3d81285332adaf7391b324e7527dc16b02a190610fc09086815260200190565b60405180910390a26000816001600160a01b031660008581548110610ff557634e487b7160e01b600052603260045260246000fd5b90600052602060002090600702016005015460405160006040518083038185875af1925050503d8060008114611047576040519150601f19603f3d011682016040523d82523d6000602084013e61104c565b606091505b505090508061106e5760405163a1d04b3960e01b815260040160405180910390fd5b600080858154811061109057634e487b7160e01b600052603260045260246000fd5b9060005260206000209060070201600501819055505050505b806110b381611557565b915050610d2c565b5050505050565b828054828255906000526020600020908101928215611117579160200282015b8281111561111757825182546001600160a01b0319166001600160a01b039091161782556020909201916001909101906110e2565b50611123929150611127565b5090565b5b808211156111235760008155600101611128565b6000806020838503121561114e578182fd5b823567ffffffffffffffff80821115611165578384fd5b818501915085601f830112611178578384fd5b813581811115611186578485fd5b866020828501011115611197578485fd5b60209290920196919550909350505050565b600060208083850312156111bb578182fd5b823567ffffffffffffffff808211156111d2578384fd5b818501915085601f8301126111e5578384fd5b8135818111156111f7576111f76115cc565b611209601f8201601f191685016114f7565b9150808252868482850101111561121e578485fd5b80848401858401378101909201929092529392505050565b600060208284031215611247578081fd5b5035919050565b60006020828403121561125f578081fd5b5051919050565b60008060408385031215611278578182fd5b8235915060208084013567ffffffffffffffff80821115611297578384fd5b818601915086601f8301126112aa578384fd5b8135818111156112bc576112bc6115cc565b8060051b91506112cd8483016114f7565b8181528481019084860184860187018b10156112e7578788fd5b8795505b838610156113095780358352600195909501949186019186016112eb565b508096505050505050509250929050565b6002811061133857634e487b7160e01b600052602160045260246000fd5b9052565b600060e083018251845260208084015181860152604084015160018060a01b0380821660408801526060860151915060e060608801528382518086526101008901915084840195508693505b808410156113aa57855183168252948401946001939093019290840190611388565b50608087015194506113bf608089018661131a565b60a087015160a089015260c087015160c0890152809550505050505092915050565b6000602080830181845280855180835260408601915060408160051b8701019250838701855b8281101561143557603f1988860301845261142385835161133c565b94509285019290850190600101611407565b5092979650505050505050565b8215158152600060206040818401528351806040850152825b818110156114775785810183015185820160600152820161145b565b818111156114885783606083870101525b50601f01601f191692909201606001949350505050565b6020815260006114b2602083018461133c565b9392505050565b868152602081018690526001600160a01b038516604082015260c081016114e3606083018661131a565b608082019390935260a00152949350505050565b604051601f8201601f1916810167ffffffffffffffff81118282101715611520576115206115cc565b604052919050565b6000821982111561153b5761153b6115b6565b500190565b600082821015611552576115526115b6565b500390565b600060001982141561156b5761156b6115b6565b5060010190565b600063ffffffff8083168181141561158c5761158c6115b6565b6001019392505050565b6000826115b157634e487b7160e01b81526012600452602481fd5b500690565b634e487b7160e01b600052601160045260246000fd5b634e487b7160e01b600052604160045260246000fdfea2646970667358221220d142f41e314903c395e81d386a411e5fd492f72aba0654d0d2a1795f3423ca7d64736f6c63430008040033290decd9548b62a8d60345a988386fc84ba6bc95484008f6362f93160ef3e563290decd9548b62a8d60345a988386fc84ba6bc95484008f6362f93160ef3e565290decd9548b62a8d60345a988386fc84ba6bc95484008f6362f93160ef3e566290decd9548b62a8d60345a988386fc84ba6bc95484008f6362f93160ef3e564",
  "linkReferences": {},
  "deployedLinkReferences": {}
}